:100000000C9437000C94E5000C94F7000C94580104
:100010000C9458010C9458010C9458010C945801FC
:100020000C9458010C9458010C9458010C945801EC
:100030000C9458010C9458010C9458010C945801DC
:100040000C9458010C9458010C9458010C945801CC
:100050000C9458010C9458010C9458010C945801BC
:100060000C9458010C9458010100010480001124E3
:100070001FBECFEFD8E0DEBFCDBFE8E6F0E040E046
:1000800017C0B591A59135912591059107FD0CC03B
:1000900095918591EF01F92FE82F05900D92A21708
:1000A000B307D9F7FE0104C01D92A217B307E1F709
:1000B000ED36F40731F70E9461000C943601F89494
:0200C000FFCF70
:1000C2000E9454010E9429010E9409010E944801D4
:1000D2000E94410180E090E00E94BD000E948100E8
:1000E2000E94A00080910201909103010E944F01A1
:1000F2008091020190910301892F0E944F01EACF62
:10010200992314F480E090E040918600509187009A
:100112009C01211584E0380714F02FEF33E0249F6F
:10012200C001259F900D349F900D11246FEF73E055
:0E0132000E94D10070938900609388000895A8
:1001400080910001909101014CE3489F9001499FEB
:10015000300D1124ADECBCEC0E941A0192958295F1
:100160008F7089279F7089279093030180930201E4
:0A01700010920101109200010895A1
:10017A00ECE7F0E09081987F8770892B8083EAE72B
:10018A00F0E0808180648083808186FDFDCF80914C
:08019A007800909179000895AE
:1001A200AA1BBB1B51E107C0AA1FBB1FA617B7079B
:1001B20010F0A61BB70B881F991F5A95A9F78095B7
:0801C2009095BC01CD010895E8
:1001CA008F938FB78F939F93809100019091010134
:1001DA00019690930101809300019F918F918FBFA7
:0401EA008F91189544
:1001EE008F938FB78F939F93809100019091010110
:1001FE00019690930101809300019F918F918FBF83
:04020E008F9118951F
:10021200E0E8F0E0808182688083E1E8F0E08081BC
:100222008A6180838FE19EE49093870080938600A9
:0202320008952D
:10023400A29FB001B39FC001A39F700D811D112423
:0E024400911DB29F700D811D1124911D089512
:10025200E9E6F0E080818360808380818C60808326
:0A0262008DB383608DBB789408957E
:10026C00EC010E945D010E945C01CE010E945E01C6
:06027C00CE010E945A01B0
:0E02820080E480937C0086E880937A000895E3
:0E02900084B1886284B98CB581658CBD0895F7
:0A029E008EBD0DB407FEFDCF0895DC
:0802A800569A529853980895EC
:0402B0000C940000AA
:0402B4000E945F0045
:0202B8000895A7
:0202BA000895A5
:0202BC000895A3
:00000001FF
