:100000000C9437000C94B3000C94C5000C942A0196
:100010000C942A010C942A010C942A010C942A01B4
:100020000C942A010C942A010C942A010C942A01A4
:100030000C942A010C942A010C942A010C942A0194
:100040000C942A010C942A010C942A010C942A0184
:100050000C942A010C942A010C942A010C942A0174
:100060000C942A010C942A0101000104800011243F
:100070001FBECFEFD8E0DEBFCDBFE8E6F0E040E046
:1000800017C0B591A59135912591059107FD0CC03B
:1000900095918591EF01F92FE82F05900D92A21708
:1000A000B307D9F7FE0104C01D92A217B307E1F709
:1000B000ED36F40731F70E9461000C94FF00F894CC
:0200C000FFCF70
:1000C2000E9420010E94E6000E940A010E9419017A
:1000D2000E94120180E090E00E949E000E94F300C4
:1000E2000E94810080910201909103010E942501EA
:1000F2008091020190910301892F0E942501EACF8C
:1001020080910001909101014CE3489F9001499F29
:10011200300D1124ADECBCEC0E94D7009295829573
:100122008F7089279F708927909303018093020122
:0A01320010920101109200010895DF
:10013C00ECE7F0E09081987F8770892B8083EAE769
:10014C00F0E0808180648083808186FDFDCF80918A
:0A015C00780090917900992708952A
:100166008F938FB78F939F93809100019091010198
:10017600019690930101809300019F918F918FBF0B
:040186008F911895A8
:10018A008F938FB78F939F93809100019091010174
:10019A00019690930101809300019F918F918FBFE7
:0401AA008F91189584
:1001AE00A29FB001B39FC001A39F700D811D1124AA
:0E01BE00911DB29F700D811D1124911D089599
:1001CC00E9E6F0E080818360808380818C608083AD
:0A01DC008DB383608DBB7894089505
:1001E600992314F480E090E08F3F910519F014F004
:0801F6008FEF90E087BD089532
:1001FE00EC010E942F010E942E01CE010E943001BF
:06020E00CE010E942C014C
:1002140084B5836884BD85B5826085BD17BC0895A7
:0E02240080E480937C0086E880937A00089541
:0E02320084B1886284B98CB581658CBD089555
:0A024000569A579A52985398089561
:0A024A008EBD0DB407FEFDCF089530
:040254000C94000006
:040258000E945F00A1
:02025C00089503
:02025E00089501
:020260000895FF
:00000001FF
